{
  "contractName": "Coinflip",
  "abi": [
    {
      "inputs": [],
      "payable": false,
      "stateMutability": "nonpayable",
      "type": "constructor"
    },
    {
      "anonymous": false,
      "inputs": [
        {
          "indexed": false,
          "internalType": "address",
          "name": "user",
          "type": "address"
        },
        {
          "indexed": false,
          "internalType": "uint256",
          "name": "bet",
          "type": "uint256"
        },
        {
          "indexed": false,
          "internalType": "bool",
          "name": "",
          "type": "bool"
        }
      ],
      "name": "betPlaced",
      "type": "event"
    },
    {
      "anonymous": false,
      "inputs": [
        {
          "indexed": false,
          "internalType": "address",
          "name": "contractOwner",
          "type": "address"
        },
        {
          "indexed": false,
          "internalType": "uint256",
          "name": "",
          "type": "uint256"
        }
      ],
      "name": "contractFunded",
      "type": "event"
    },
    {
      "constant": true,
      "inputs": [],
      "name": "contractAddress",
      "outputs": [
        {
          "internalType": "address",
          "name": "",
          "type": "address"
        }
      ],
      "payable": false,
      "stateMutability": "view",
      "type": "function"
    },
    {
      "constant": true,
      "inputs": [],
      "name": "contractBalance",
      "outputs": [
        {
          "internalType": "uint256",
          "name": "",
          "type": "uint256"
        }
      ],
      "payable": false,
      "stateMutability": "view",
      "type": "function"
    },
    {
      "constant": true,
      "inputs": [],
      "name": "contractOwner",
      "outputs": [
        {
          "internalType": "address",
          "name": "",
          "type": "address"
        }
      ],
      "payable": false,
      "stateMutability": "view",
      "type": "function"
    },
    {
      "constant": false,
      "inputs": [],
      "name": "flipCoin",
      "outputs": [
        {
          "internalType": "bool",
          "name": "",
          "type": "bool"
        }
      ],
      "payable": true,
      "stateMutability": "payable",
      "type": "function"
    },
    {
      "constant": true,
      "inputs": [],
      "name": "getBalance",
      "outputs": [
        {
          "internalType": "address",
          "name": "",
          "type": "address"
        },
        {
          "internalType": "uint256",
          "name": "",
          "type": "uint256"
        },
        {
          "internalType": "uint256",
          "name": "",
          "type": "uint256"
        }
      ],
      "payable": false,
      "stateMutability": "view",
      "type": "function"
    },
    {
      "constant": false,
      "inputs": [],
      "name": "withdrawAll",
      "outputs": [
        {
          "internalType": "uint256",
          "name": "",
          "type": "uint256"
        }
      ],
      "payable": false,
      "stateMutability": "nonpayable",
      "type": "function"
    },
    {
      "constant": false,
      "inputs": [],
      "name": "fundContract",
      "outputs": [
        {
          "internalType": "uint256",
          "name": "",
          "type": "uint256"
        }
      ],
      "payable": true,
      "stateMutability": "payable",
      "type": "function"
    }
  ],
  "bytecode": "0x608060405234801561001057600080fd5b50336000806101000a81548173ffffffffffffffffffffffffffffffffffffffff021916908373ffffffffffffffffffffffffffffffffffffffff1602179055506107cc806100606000396000f3fe6080604052600436106100705760003560e01c80638b7afe2e1161004e5780638b7afe2e14610127578063bd097e2114610152578063ce606ee014610170578063f6b4dfb4146101c757610070565b806312065fe014610075578063799ae223146100da578063853828b6146100fc575b600080fd5b34801561008157600080fd5b5061008a61021e565b604051808473ffffffffffffffffffffffffffffffffffffffff1673ffffffffffffffffffffffffffffffffffffffff168152602001838152602001828152602001935050505060405180910390f35b6100e261024a565b604051808215151515815260200191505060405180910390f35b34801561010857600080fd5b50610111610459565b6040518082815260200191505060405180910390f35b34801561013357600080fd5b5061013c6105b9565b6040518082815260200191505060405180910390f35b61015a6105bf565b6040518082815260200191505060405180910390f35b34801561017c57600080fd5b50610185610702565b604051808273ffffffffffffffffffffffffffffffffffffffff1673ffffffffffffffffffffffffffffffffffffffff16815260200191505060405180910390f35b3480156101d357600080fd5b506101dc610727565b604051808273ffffffffffffffffffffffffffffffffffffffff1673ffffffffffffffffffffffffffffffffffffffff16815260200191505060405180910390f35b6000806000303073ffffffffffffffffffffffffffffffffffffffff1631600154925092509250909192565b6000662386f26fc10000803410156102ca576040517f08c379a000000000000000000000000000000000000000000000000000000000815260040180806020018281038252601c8152602001807f4d696e696d756d20616d6f756e74203e3d20302e30312065746865720000000081525060200191505060405180910390fd5b343073ffffffffffffffffffffffffffffffffffffffff1631101561033a576040517f08c379a000000000000000000000000000000000000000000000000000000000815260040180806020018281038252604a81526020018061074e604a913960600191505060405180910390fd5b6000806002428161034757fe5b0614156103675734600160008282540192505081905550600090506103da565b60016002428161037357fe5b0614156103d957346001600082825403925050819055503373ffffffffffffffffffffffffffffffffffffffff166108fc600234029081150290604051600060405180830381858888f193505050501580156103d3573d6000803e3d6000fd5b50600190505b5b7f73bd43530b3f4bd380a12ac5b08dcbb30e92f8df9a9e3264c6a26222309ff953333483604051808473ffffffffffffffffffffffffffffffffffffffff1673ffffffffffffffffffffffffffffffffffffffff16815260200183815260200182151515158152602001935050505060405180910390a1809250505090565b60008060009054906101000a900473ffffffffffffffffffffffffffffffffffffffff1673ffffffffffffffffffffffffffffffffffffffff163373ffffffffffffffffffffffffffffffffffffffff161461051d576040517f08c379a00000000000000000000000000000000000000000000000000000000081526004018080602001828103825260158152602001807f596f7520617265206e6f7420746865206f776e6572000000000000000000000081525060200191505060405180910390fd5b3373ffffffffffffffffffffffffffffffffffffffff166108fc3073ffffffffffffffffffffffffffffffffffffffff16319081150290604051600060405180830381858888f1935050505015801561057a573d6000803e3d6000fd5b5060003073ffffffffffffffffffffffffffffffffffffffff16311461059c57fe5b3073ffffffffffffffffffffffffffffffffffffffff1631905090565b60015481565b60008060009054906101000a900473ffffffffffffffffffffffffffffffffffffffff1673ffffffffffffffffffffffffffffffffffffffff163373ffffffffffffffffffffffffffffffffffffffff1614610683576040517f08c379a00000000000000000000000000000000000000000000000000000000081526004018080602001828103825260158152602001807f596f7520617265206e6f7420746865206f776e6572000000000000000000000081525060200191505060405180910390fd5b600034141561069157600080fd5b7fff043843182fec3fbcbc695545b7652d340a2cf0919615adb04d98a00e7de8e23334604051808373ffffffffffffffffffffffffffffffffffffffff1673ffffffffffffffffffffffffffffffffffffffff1681526020018281526020019250505060405180910390a134905090565b6000809054906101000a900473ffffffffffffffffffffffffffffffffffffffff1681565b600260009054906101000a900473ffffffffffffffffffffffffffffffffffffffff168156fe54686520636f6e747261637420646f65736e74206861766520656e6f7567682062616c616e636520746f20706c6179207269676874206e6f772e20436f6d65204261636b206c61746572a265627a7a72315820f3abae8e493459b0230d639c65c8a1c59e62f39f47c4d636f654c62daf99abc764736f6c634300050c0032",
  "source": "\n\npragma solidity 0.5.12;\n\ncontract Coinflip {\n\n  address public contractOwner;\n\n  constructor() public {\n      contractOwner = msg.sender;\n  }\n\n  modifier onlyOwner() {\n      require(msg.sender == contractOwner, \"You are not the owner\");\n      _;\n  }\n\n    uint public contractBalance;\n    address public contractAddress;\n\n    modifier costs(uint cost) {\n        require(msg.value >= cost, \"Minimum amount >= 0.01 ether\");\n        _;\n\n    }\n\n    event betPlaced(address user, uint bet, bool);\n    event contractFunded(address contractOwner, uint);\n\n    //Flip the Coin and check whether user won or lost;\n    function flipCoin() public payable costs(0.01 ether) returns(bool) {\n        require(address(this).balance >= msg.value, \"The contract doesnt have enough balance to play right now. Come Back later\");\n        bool success;\n        if (now % 2 == 0) {\n            contractBalance += msg.value;\n            success = false;\n        }\n        else if (now % 2 == 1){\n            contractBalance -= msg.value;\n            msg.sender.transfer(msg.value * 2);\n            success = true;\n        }\n        //event to be emitted\n        emit betPlaced(msg.sender, msg.value, success);\n        return success;\n    }\n\n    function getBalance() public view returns(address, uint, uint) {\n      return(address(this), address(this).balance, contractBalance);\n    }\n\n    // withdraw all funds possible only though contractOwner address;\n    function withdrawAll() public onlyOwner returns(uint){\n        msg.sender.transfer(address(this).balance);\n        assert(address(this).balance == 0);\n        return address(this).balance;\n    }\n\n    function fundContract() public payable onlyOwner returns(uint) {\n\n        require(msg.value != 0);\n        emit contractFunded(msg.sender, msg.value);\n        return msg.value;\n    }\n}\n",
  "sourcePath": "/Users/aadyakalra/Documents/Ethereum-course-advanced/coinflipDapp-Phase1/contracts/coinflip.sol",
  "compiler": {
    "name": "solc",
    "version": "0.5.12+commit.7709ece9.Emscripten.clang"
  },
  "schemaVersion": "3.0.16",
  "updatedAt": "2021-01-02T14:13:19.354Z",
  "devdoc": {
    "methods": {}
  },
  "userdoc": {
    "methods": {}
  }
}